:100000000C94DC050C9423060C9423060C94230614
:100010000C9423060C9423060C9423060C942306BC
:100020000C9423060C9423060C94F3210C94C62202
:100030000C946B180C9423060C9423060C94230642
:100040000C9423060C9423060C9423060C9423068C
:100050000C9423060C94CC180C9423060C942306C1
:100060000C9423060C9423060C9423060C9423066C
:100070000C9423060C9423060C9423060C9423065C
:100080000C9423060C9423060C9423060C9423064C
:100090000C9423060C9423060C9423060C9423063C
:1000A0000C9423060C9423060C94230629001E00AE
:1000B0001F0020002100220023002400250026002C
:1000C00027002D002E002A0000002B0014001A002B
:1000D0000800150017001C0018000C001200130087
:1000E0002F00300031000000390004001600070026
:1000F00009000A000B000D000E000F003300340051
:10010000280000000000E1001D001B00060019008F
:100110000500110010003600370038000000E10033
:1001200052000000E000E300E200000000002C00AC
:1001300000000000000001514C00E00050005100A0
:100140004F0035023A003B003C003D003E003F00BE
:10015000400041004200430044004500010000000F
:100160000100010001000100010001000100010087
:100170000100010001000100010001000000010078
:100180000100010001000100010001000100010067
:100190000100010001000100000000000100010059
:1001A0000100010001000100010001000100010047
:1001B0000100000001000100000001000100010039
:1001C00000000000010000000000000001000251DA
:1001D00001000100010001000070327030703170C8
:1001E0000100010001000100010001000100010007
:1001F00001000100000001000100010001000100F8
:1002000001000100010001000100010001000100E6
:1002100001000000010001000100010001000100D7
:1002200001000100010001000100010001000000C7
:1002300000000100010001000100010001000100B7
:1002400001000100010001000000010001000000A8
:10025000010001000100000000000100000000009A
:100260000000010001000100010001000100010087
:100270000100010001000100010001000100010076
:100280000100010001000100010000000100010067
:100290000100010001000100010001000100010056
:1002A0000100010001000100000001000100010047
:1002B0000100010001000100010001000100010036
:1002C0000100010000000000010001000100010028
:1002D0000100010001000100010001000100000017
:1002E0000100010000000100010001000000000009
:1002F00001000000000000000100010001000100F9
:1003000001000100010001000100010001000100E5
:1003100001000100010001000100010001000100D5
:1003200000000100010001000100010001000100C6
:1003300001000100010001000100010001000000B6
:1003400001000100010001000100010001000100A5
:100350000100010001000100010000000000010097
:100360000100010001000100010001000100010085
:100370000100010000000100010000000100010077
:10038000010000000000010000000000000001006A
:100390000100010001000100010001000100010055
:1003A0000100010001000100010001000100010045
:1003B0000100010001000000010001000100010036
:1003C0000100010001000100010001000100010025
:1003D0000100010000000100010001000100010016
:1003E0000100010001000100010001000100010005
:1003F00000000000010001000100010001000100F7
:1004000001000100010001000100000001000100E5
:1004100000000100010001000000000001000000D8
:1004200000000000010001000100010001000100C6
:1004300001000100010001000100010001000100B4
:1004400001000100010001000100010000000100A5
:100450000100010001000100010001000100010094
:100460000100010001000100010000000100010085
:100470000100010001000100010001000100010074
:100480000100010001000000000001000100010066
:100490000100010001000100010001000100010054
:1004A0000000010001000000010001000100000047
:1004B0000000010000000000000001000100010038
:1004C0000100010001000100010001000100010024
:1004D0000100010001000100010001000100010014
:1004E0000100000001000100010001000100010005
:1004F00001000100010001000100010001000100F4
:1005000000000100010001000100010001000100E4
:1005100001000100010001000100010000000000D5
:1005200001000100010001000100010001000100C3
:1005300001000100010000000100010000000100B5
:1005400001000100000000000100000000000000A8
:100550000100010001000100010001000100010093
:100560000100010001000100010001000100010083
:100570000100010001000100000001000100010074
:100580000100010001000100010001000100010063
:100590000100010001000000010001000100010054
:1005A0000100010001000100010001000100010043
:1005B0000100000000000100010001000100010035
:1005C0000100010001000100010001000000010024
:1005D0000100000001000100010000000000010016
:1005E0000000000000000100010001000100010006
:1005F00001000100010001000100010001000100F3
:1006000001000100010001000100010001000000E3
:1006100001000100010001000100010001000100D2
:1006200001000100010001000100010000000100C3
:1006300001000100010001000100010001000100B2
:1006400001000100010001000000000001000100A4
:100650000100010001000100010001000100010092
:100660000100000001000100000001000100010084
:100670000000000001000000000000000100010077
:100680000100010001000100010001000100010062
:100690000100010001000100010001000100010052
:1006A0000100010000000100010001000100010043
:1006B0000100010001000100010001000100010032
:1006C0000100000001000100010001000100010023
:1006D0000100010001000100010001000100000013
:1006E0000000010001000100010001000100010003
:1006F00001000100010001000000010001000000F4
:1007000001000100010000000000010000000000E5
:1007100000000100010001000100010001000100D2
:1007200001000100010001000100010001000100C1
:1007300001000100010001000100000001000100B2
:1007400001000100010001000100010001000100A1
:100750000100010001000100000001000100010092
:100760000100010001000100010001000100010081
:100770000100010000000000010001000100010073
:100780000100010001000100010001000100000062
:100790000100010000000100010001000000000054
:1007A0000100000000000000010001000100010044
:1007B0000100010001000100010001000100010031
:1007C0000100010001000100010001000100010021
:1007D0000000010001000100010001000100010012
:1007E0000100010001000100010001000100000002
:1007F00001000100010001000100010001000100F1
:1008000001000100010001000100000000000100E2
:1008100001000100010001000100010001000100D0
:1008200001000100000001000100000001000100C2
:1008300001000000000001000000000000000100B5
:1008400001000100010001000100010001000100A0
:100850000100010001000100010001000100010090
:100860000100010001000000010001000100010081
:100870000100010001000100010001000100010070
:100880000100010000000100010001000100010061
:100890000100010001000100010001000100010050
:1008A0000000000001000100010001000100010042
:1008B0000100010001000100010000000100010031
:1008C0000000010001000100000000000100000024
:1008D0000000000001000100010001000100010012
:1008E0000100010001000100010001000100010000
:1008F00001000100010001000100010000000100F1
:1009000001000100010001000100010001000100DF
:1009100001000100010001000100000001000100D0
:1009200001000100010001000100010001000100BF
:1009300001000100010000000000010001000100B1
:10094000010001000100010001000100010001009F
:100950000000010001000000010001000100000092
:100960000000010000000000000001000100010083
:10097000010001000100010001000100010001006F
:10098000010001000100010001000100010001005F
:100990000100000001000100010001000100010050
:1009A000010001000100010001000100010001003F
:1009B0000000010001000100010001000100010030
:1009C0000100010001000100010001000000000021
:1009D000010001000100010001000100010001000F
:1009E0000100010001000000010001000000010001
:1009F00001000100000000000100000000000000F4
:100A000001000100010001000100010012036B0060
:100A10006500790062006F006100720064000000F0
:100A2000160371006D006B006200750069006C00B8
:100A300064006500720000000403090409026D00EF
:100A4000040100A0FA0904000001030101000921CA
:100A5000110100012240000705810308000A090472
:100A600001000103010200092111010001224D00D2
:100A70000705820308000A090402000103000000C0
:100A80000921110100012236000705830308000A2D
:100A900009040300010300000009211101000122E3
:100AA0003900070584032000011201100100000035
:100AB00008EDFE606001000102000105010906A1C8
:100AC00001050719E029E715002501950875018141
:100AD0000205081901290595057501910295017511
:100AE0000391010507190029F71500250195F875EF
:100AF000018102C005010980A101850216010026BD
:100B000003001A81002A8300751095018100C00539
:100B10000C0901A1018503160100269C021A01009F
:100B20002A9C02751095018100C005010902A101EE
:100B30000901A100050919012905150025019505DF
:100B400075018102950175038101050109300931A3
:100B50001581257F95027508810609381581257F45
:100B6000950175088106050C0A38021581257F95C7
:100B70000175088106C0C005010906A10105071914
:100B8000E029E71500250195087501810295017599
:100B9000088101050819012905950575019102953E
:100BA00001750391010507190029FF150026FF00B3
:100BB000950675088100C00011241FBECFEFDAE052
:100BC000DEBFCDBF04B603FE27C080914F029091D7
:100BD0005002A0915102B09152028730904BA74031
:100BE000B04BD1F410924F02109250021092510269
:100BF0001092520214BE84B7877F84BF0FB6F89458
:100C0000A8958091600088618093600010926000D8
:100C10000FBEE0E0F8E3099511E0A0E0B1E0E6E600
:100C2000FCE402C005900D92AC33B107D9F722E085
:100C3000ACE3B1E001C01D92AF34B207E1F70E940E
:100C4000491F0C9405260C94000090E080E0089564
:100C50000895089581E0089581FF03C0209A28989F
:100C600008952098FCCF81E008950C942A060E94F4
:100C7000A9102FEF84E39CE0215080409040E1F7E1
:100C800000C000000C94EF18EF92FF920F931F9397
:100C9000CF93DF938C01FC01E080F180809176019D
:100CA000811140C082818823C1F1C7010E942E16A4
:100CB000C82F682FC7010E94D715B7018C2F0E943B
:100CC000BA07EC01B8010E943506882309F44BC02D
:100CD000B801CE010E94F209882309F444C0C5314D
:100CE000F0E7DF0720F5C23080E7D80708F04DC0F5
:100CF000C115E0E7DE0791F1C130D047E1F181E0B5
:100D000080933E0180933F01C801DF91CF911F91F5
:100D10000F91FF90EF900C943306C7010E940516C7
:100D2000C82FCBCFC7010E942E16B701C8CFCC3336
:100D300080E7D80709F49BC0CD33D04701F7F8010D
:100D40008281882309F4BAC010923F010E949B1847
:100D500090933D0180933C0180E296C0F80182812E
:100D600081110E94370680E0DF91CF911F910F9192
:100D7000FF90EF900895F80182818823A1F380917C
:100D80000E02816080930E02EECFF80182818823EB
:100D900009F4BACF0E94EE17811102C00E94CF174A
:100DA0000E940B1890E09093400280933F02FE0156
:100DB000E350F04780913F028160E231F10538F461
:100DC000E95FF94D0C94B52580913F0282608093D4
:100DD0003F0280913F020E940F180E94A910C3CFCA
:100DE00080913F028460F3CF80913F028860EFCF13
:100DF00080913F028061EBCF80913F028062E7CF1C
:100E000080913F028064E3CF80913F028068DFCF12
:100E100080913F028C60DBCF80913F028E7FD7CFE5
:100E200080913F028D7FD3CF80913F028B7FCFCFC8
:100E300080913F02877FCBCF80913F028F7EC7CFCB
:100E400080913F028F7DC3CF80913F028F7BBFCFC8
:100E500080913F028F77BBCF80913F02837FB7CFD6
:100E600090913F02892F97FB87F98058B0CFF80106
:100E70008281882361F010923E010E949B1890931A
:100E80003D0180933C0182E00E94EE0D6CCF809189
:100E90003E0181110FC080913C0190913D010E9463
:100EA000A718883C910530F486E20E94C30C86E2C4
:100EB0000E949F0D82E00E94F50D55CF80913F0169
:100EC00081110FC080913C0190913D010E94A718B3
:100ED000883C910530F487E20E94C30C87E20E94AF
:100EE0009F0D80E2E8CF0C94430A279A2F988FEF4A
:100EF0009FEF90938700809386008AE08093800024
:100F000089E1809381000C94FB1C0E9475070C946E
:100F1000410A282F2F9880918000211108C0877FD7
:100F20008093800010928D0010928C00089588604C
:100F300080938000233039F48FEF9FEF90938D00E2
:100F400080938C00089583E090E0821B9109880FC4
:100F5000991F2FEF3FEF02C0369527958A95E2F74C
:100F600030938D0020938C0008950C942C060C94E3
:100F7000B5070895972F70E02FE0929F600D711DC7
:100F80001124FB019BE4899FE00DF11D1124EE0F5C
:100F9000FF1FE455FF4F859194910895FC01EE0FDA
:100FA000FF1FE45FF54F8591949108950E94BA0761
:100FB0000E9476099C01211581E5380708F046C09A
:100FC000211590E5390708F00CC1283E310518F5C8
:100FD000203E3105C8F5283A310578F4253A310527
:100FE00008F097C02130310579F1C9010497813AA1
:100FF000910550F130E020E027C02D3B310508F489
:1010000093C0C901805C91098032910598F70E94D4
:10101000CE079C0119C0211580E3380770F4211513
:1010200090E2390708F0D7C02F3F310509F060F48E
:10103000203F3105F8F2306507C0211580E43807FC
:1010400008F4CCC03F70306AC9010895211590E7BB
:101050003907C8F5211580E6380708F0FAC02115D0
:1010600094E53907F0F4211583E5380708F0D8C076
:10107000211592E5390708F4CEC0C901837099277C
:1010800041E050E002C0440F551F8A95E2F72695D3
:10109000269580E2289F90011124242B352B3C6853
:1010A000D3CF211595E5390708F4CEC0C901955570
:1010B0008F3F910511F008F09DCF322F2227222774
:1010C0003F713062C1CF213380E7380709F4C3C0D4
:1010D000A0F4203380E7380748F4203290E739073E
:1010E00008F488CF20523047346DAECF20333047DC
:1010F00009F080CF20E031EDA7CF223390E7390708
:1011000009F4ACC02333304709F074CF20E033ED4D
:101110009BCF253A310509F4A4C0263A310509F0E0
:10112000A3C022E830E490CF283A310509F49FC0EB
:10113000293A310509F49EC02A3A310509F49DC0C7
:101140002B3A310509F49CC02C3A310509F49BC0B7
:101150002B3B310509F49AC02C3B310509F499C0A9
:101160002D3A310509F498C0203B310509F497C0A8
:101170002E3A310509F496C02F3A310509F495C08D
:10118000213B310509F494C0223B310509F493C099
:10119000233B310509F492C0243B310509F491C089
:1011A000253B310509F490C0263B310509F48FC079
:1011B000273B310509F48EC0283B310509F48DC069
:1011C000293B310509F48CC02A3B310509F48BC059
:1011D00020E034E439CFC9019F7019CF3327306C38
:1011E00033CFC90154E0969587955A95E1F78370FE
:1011F000422F46954695437090E2499FA0011124E5
:10120000582B822F837021E030E002C0220F331F61
:101210008A95E2F742CF322F2227216F306A14CF0E
:10122000C9018370992741E050E002C0440F551F67
:101230008A95E2F72695269580E2289F9001112451
:10124000242B352B3A6800CF322F2227246F306AA7
:10125000FBCE3F7036CF20E030EDF6CE20E032ED11
:10126000F3CE21E830E4F0CE23E830E4EDCE22EEF8
:1012700034E4EACE29EE34E4E7CE2AEE34E4E4CED8
:1012800025EB34E4E1CE26EB34E4DECE23EB34E48C
:10129000DBCE24EB34E4D8CE27EB34E4D5CE2CECF3
:1012A00034E4D2CE2DEC34E4CFCE23E835E4CCCEFA
:1012B0002AE835E4C9CE22E935E4C6CE24E935E48E
:1012C000C3CE21E236E4C0CE23E236E4BDCE24E232
:1012D00036E4BACE25E236E4B7CE26E236E4B4CE22
:1012E00027E236E4B1CE2AE236E4AECE803E910566
:1012F00081F1C8F48133910509F462C048F4893260
:10130000910509F456C08A32910509F460C0089528
:1013100089339105B9F082389105A1F085339105A3
:1013200009F440C00895863E910561F138F4823E8B
:101330009105B1F0833E9105E1F00895873E910556
:1013400051F1089520913F022370D9F080EE90E092
:10135000089520913F0220FF14C089E390E0089592
:1013600020913F0222FF0DC024FD09C083EE90E0D2
:10137000089520913F0222FD31C024FF02C090E079
:1013800080E0089520913F0223FFFBCF24FDF7CF9B
:1013900087EE90E0089520913F0223FFEECF86EE86
:1013A00090E0089520913F0225FFEBCF89E290E085
:1013B000089520913F0225FFE4CF85E390E0089552
:1013C00020913F0226FFDDCF8AE290E00895209130
:1013D0003F0226FFD6CF81E390E0089582EE90E0B1
:1013E000089508950F931F93CF938C01FB01828181
:1013F000811106C0C1E08C2FCF911F910F910895EC
:10140000C0914D01C11125C00531104799F70E94C7
:10141000F10981E080934D010E949B1890934C014B
:1014200080934B01109240011092420110924101B1
:10143000109244011092430110924601109245010E
:10144000109248011092470110924A0110924901EE
:10145000D2CF80914B0190914C010E94A718883CFB
:10146000910540F680914001E82FF0E0EE0FFF1F5C
:10147000EF5BFE4F118300838F5F80934001C0E0DC
:10148000BACF0C9428060C942906CF93DF9385B726
:10149000806885BF85B7806885BFA2E2B1E047E27A
:1014A00051E0C1E0D0E08D91E82FE295EF70F0E0DF
:1014B00061A18F709E0101C0220F8A95EAF7922FD9
:1014C0009095962391A382A1822B82A34A175B0752
:1014D00051F7A3E1B1E061E070E08D91E82FE29572
:1014E000EF70F0E041A18F709B0101C0220F8A953F
:1014F000EAF7922F9095942391A382A1822B82A345
:1015000081E0A232B80749F71092590110925801B0
:1015100010924F0110924E0110925B0110925A01ED
:10152000109251011092500110925D0110925C01D5
:10153000109253011092520110925F0110925E01BD
:1015400010925501109254011092610110926001A5
:101550001092570110925601DF91CF910C9485079C
:101560004F925F927F928F929F92AF92BF92CF9253
:10157000DF92EF92FF920F931F93CF93DF939EE43E
:10158000492E91E0592E22E2E22E21E0F22E01E0D6
:1015900010E099249394E201A990B9902E01DE0104
:1015A0001E921E92F70181917F01E82FE295EF7064
:1015B000F0E091A18F70980101C0220F8A95EAF79F
:1015C000892F822B81A382A1822E8094882182A3DD
:1015D00080EA8A95F1F783E1C82E81E0D82E90E069
:1015E00080E0E60179916E01472F42954F7050E0FF
:1015F000EA0178A04D915C9111977F70E80102C0DB
:10160000CC0FDD1F7A95E2F7BE01672109F072C0A9
:10161000B801082E02C0660F771F0A94E2F7462B26
:10162000572B11965C934E9301968F309105C9F616
:1016300081A1882281A282A1282B22A38D919C9135
:10164000A816B90641F0909262010E949B189093EF
:10165000640180936301D8E54D16D1E05D0609F081
:101660009ACF80916201882391F1809163019091DA
:1016700064010E94A718069750F180914E01909145
:101680004F0190935901809358018091500190919E
:10169000510190935B0180935A0180915201909186
:1016A000530190935D0180935C018091540190916E
:1016B000550190935F0180935E0180915601909156
:1016C00057019093610180936001109262010E9422
:1016D000730781E0DF91CF911F910F91FF90EF9001
:1016E000DF90CF90BF90AF909F908F907F905F9052
:1016F0004F90089570E060E092CFE82FF0E0EE0F99
:10170000FF1FE85AFE4F80819181089508959093BC
:101710006A01809369010895E0916901F0916A017D
:10172000309721F00190F081E02D099480E0089538
:10173000E0916901F0916A01309721F00280F38114
:10174000E02D09940895E0916901F0916A013097C4
:1017500021F00480F581E02D09940895209167011E
:10176000309168012817390771F0909368018093D0
:101770006701E0916901F0916A01309721F00680DC
:10178000F781E02D0994089520916501309166015B
:101790002817390771F09093660180936501E091F5
:1017A0006901F0916A01309721F00084F185E02D04
:1017B0000994089508950C94DA0B0E9492180E94DF
:1017C000450A0E945C190C94FB1C5F926F927F92F9
:1017D0008F929F92AF92BF92CF92DF92EF92FF9241
:1017E0000F931F93CF93DF9300D000D00F92CDB70C
:1017F000DEB70E94B00A9CE6A92E91E0B92E10E057
:1018000000E088248394912C502E802F0E947D0B21
:101810007C01F501C190D1905F01C816D90609F489
:101820005DC080910E0281FD0E94860B90E080E0F9
:10183000CE24DF243401082E02C0660C771C0A94E3
:10184000E2F7960126213721232B09F442C0898330
:101850005A82E620F72081E0EF2809F480E08B83AC
:101860000E949B188160782F9D838C8349815A81C7
:101870006B818D810E949A0C000F111FF801E459B1
:10188000FE4F8081918168267926718260820E9454
:10189000091C0E948C0B90916B018917B1F10E9479
:1018A0008C0B80936B010F900F900F900F900F9007
:1018B000DF91CF911F910F91FF90EF90DF90CF902C
:1018C000BF90AF909F908F907F906F905F900C949F
:1018D000B70701968F30910509F0ACCF0F5F1F4F0E
:1018E0000530110509F090CF8FEF89838A831B8221
:1018F0000E949B188160782F9D838C8349815A8137
:101900006B818D810E949A0CC2CF0F900F900F9027
:101910000F900F90DF91CF911F910F91FF90EF905B
:10192000DF90CF90BF90AF909F908F907F906F90FF
:101930005F900895CF93DF93CDB7DEB72B970FB6A7
:10194000F894DEBF0FBECDBF4F83588769877A8773
:101950008B871E8285E0FE013796DE01119601908D
:101960000D928A95E1F749815A816B817C818D8145
:101970009E812B960FB6F894DEBF0FBECDBFDF91D0
:10198000CF910C943113882309F4D8C0823871F4B4
:101990000E948C0B81FDD2C089E30E94D6160E9462
:1019A000A01789E30E9413170C94A017833859F4E9
:1019B0000E948C0B80FDC2C083E50E94D6160E9457
:1019C000A01783E5EFCF843859F40E948C0B82FD79
:1019D000B5C087E40E94D6160E94A01787E4E2CF24
:1019E0009CEF980F913A18F40E94D616DDCF90E242
:1019F000980F983050F4877091E001C0990F8A9544
:101A0000EAF7892F0E945717CFCF9BE5980F9330A5
:101A100070F4853A31F0863A39F083E890E00C941E
:101A2000AE0B81E890E0FBCF82E890E0F8CF98E53C
:101A3000980F953108F082C0883A09F440C0893A7D
:101A400009F440C08A3A09F440C08B3A09F440C016
:101A50008C3A09F440C08B3B09F440C08C3B09F43C
:101A600040C08D3A09F440C0803B09F440C08E3A32
:101A700009F440C08F3A09F440C0813B09F440C0EA
:101A8000823B09F440C0833B09F440C0843B09F425
:101A900040C0853B09F440C0863B09F440C0873B09
:101AA00009F440C0883B09F440C0893B09F440C0B8
:101AB0008A3B09F440C090E080E00C94C40B82EEB5
:101AC00090E0FBCF89EE90E0F8CF8AEE90E0F5CF82
:101AD00085EB90E0F2CF86EB90E0EFCF83EB90E0E8
:101AE000ECCF84EB90E0E9CF87EB90E0E6CF8CEC95
:101AF00090E0E3CF8DEC90E0E0CF83E891E0DDCFA4
:101B00008AE891E0DACF82E991E0D7CF84E991E0E9
:101B1000D4CF81E292E0D1CF83E292E0CECF84E2D3
:101B200092E0CBCF85E292E0C8CF86E292E0C5CFCB
:101B300087E292E0C2CF8AE292E0BFCF0895882385
:101B400009F44BC0823871F40E948C0B81FF45C0B0
:101B500089E30E94D6160E94A01789E30E941317FA
:101B60000C94A017833859F40E948C0B80FF35C069
:101B700083E50E94D6160E94A01783E5EFCF843834
:101B800059F40E948C0B82FF28C087E40E94D6166D
:101B90000E94A01787E4E2CF9CEF980F913AF0F2F1
:101BA00090E2980F983050F4877091E001C0990F3F
:101BB0008A95EAF7892F0E945D17D2CF9BE5980F8F
:101BC000933020F490E080E00C94AE0B885A85317D
:101BD00020F490E080E00C94C40B0895882321F059
:101BE0000E9457170C94A0170895882321F00E9493
:101BF0005D170C94A01708958F929F92AF92BF9299
:101C0000DF92EF92FF920F931F93CF93DF9300D059
:101C100000D00F92CDB7DEB77C016D837983FC01D4
:101C2000058102950F70128111110E9476170E9492
:101C3000CF16D82E882371F01123A1F08D81805EFC
:101C4000883080F082E00E94B9160E94CF1691E0A1
:101C5000D82ED926E981E295EF70F0E0E75EF94DE4
:101C60000C94B525D12CF6CF09810F70F981F07F46
:101C700011F00295007F1123B1F0002361F08D81F6
:101C8000805E883018F02D81211109C0802F0E94BC
:101C900057170E94A0178D810E94C30C15C0802F7A
:101CA0000E946817F6CF8D810E949F0D002361F07E
:101CB0008D81805E883018F03D81311129C0802FE0
:101CC0000E945D170E94A017DD2009F4F3C10E9455
:101CD000AC1680FDEFC1F70112820E94A6160E9489
:101CE000EF14C7010E946B100E94A6160F900F9070
:101CF0000F900F900F90DF91CF911F910F91FF9058
:101D0000EF90DF90BF90AF909F908F900C94111543
:101D1000802F0E946E17D6CF49814F70B42E598103
:101D2000507F503219F0B29480EFB8228D81882311
:101D300069F0813029F1112369F1002359F0F7018D
:101D4000858180FFA8CF8F70858304C0112361F047
:101D5000011104C08B2D0E94EE0DB6CF8B2D0130EA
:101D6000D1F70E948A17B0CF011106C00E948D17CB
:101D70008B2D0E94F50DA8CF013009F4A5CFF6CF29
:101D8000112321F0063008F09FCFE4CF053008F092
:101D90009BCFEECF002361F38D810E949F0D94CFE6
:101DA000898186958695837069F0813009F08CCFA2
:101DB0008D8199819370111102C090E080E00E94A2
:101DC000C40B82CF8D8199819370111102C090E074
:101DD00080E00E94AE0B78CF8D81112329F00E9404
:101DE000171B0E94FE1B70CF0E947F1BFACF8981B8
:101DF000837009F05FC0111167CF2D812295269560
:101E00002770220F220F8D818F7090E0B0E0A0E04C
:101E10004C015D01022E04C0880C991CAA1CBB1C3D
:101E20000A94D2F7FD8160E070E0CB01F4FF0FC0AF
:101E30006FE070E080E090E004C0660F771F881FBD
:101E4000991F2A95D2F76095709580959095298174
:101E50002695269523702D832230B1F0233019F179
:101E60009B01AC01282939294A295B2929833A8316
:101E70004B835C833D8169817A818B819C81313088
:101E8000B1F00E947C1420CF9B01AC012829392994
:101E90004A295B2929833A834B835C83CA01B901B0
:101EA0000E94A61411CF0E947C14C501B4010E94A7
:101EB00052140ACF8695112311F0898181708823ED
:101EC00009F402CF2D81229526952770220F220F2B
:101ED0008D818F7090E0B0E0A0E04C015D01022E9A
:101EE00004C0880C991CAA1CBB1C0A94D2F73D8123
:101EF00060E070E0CB0134FF0FC06FE070E080E085
:101F000090E004C0660F771F881F991F2A95D2F7AB
:101F1000609570958095909549814695469543705A
:101F20004D834230B1F0433019F19B01AC012829B7
:101F300039294A295B2929833A834B835C833D8174
:101F400069817A818B819C813130B1F00E94821548
:101F5000BBCE9B01AC01282939294A295B29298359
:101F60003A834B835C83CA01B9010E94AC15ACCEA5
:101F70000E948215C501B4010E945815A5CE3D816D
:101F8000323F09F447C080F4303F79F1313FD9F155
:101F9000832F805E8031D0F0112309F456C00111E7
:101FA0007ACE89818F7133C04D81433FD1F1443F57
:101FB00099F7112309F43FC089818F7189830E94A9
:101FC000EF1463E089810E94B0167ECE5D815F7060
:101FD0005D8389818F71112321F00E94EF148D811F
:101FE000BACE0E9411158D81C4CE112341F0053067
:101FF00008F06ACE89818F710E94361565CE063051
:1020000008F062CEF7CF89818F71112339F00E94D9
:10201000EF145ACE89818F711123C9F30E941115D3
:1020200053CE112329F089818F710E94DA144CCE8E
:102030000E94D01449CE81E00E94B916023008F403
:1020400043CE82E00E94B9163FCE0111A5CE898110
:102050008F71E4CF49814F706D81C7010E942506C1
:102060000E94CB1331CE11112FCEE981EF70E9839D
:10207000E23099F028F4E1110DC00E940D1D24CE2C
:10208000F981F33069F0F43009F01ECE8D810E94A1
:10209000751D1ACE0E94251D17CE0E943E1D14CE1E
:1020A0000E94521D11CE49814F706D81C7010E945F
:1020B000B9070ACE0F900F900F900F900F90DF91FD
:1020C000CF911F910F91FF90EF90DF90BF90AF9055
:1020D0009F908F9008950F931F93CF93DF93EC0100
:1020E0008B819C81892B29F08881998189238F3F5D
:1020F00029F4DF91CF911F910F910895CE010E9495
:1021000044068823B1F3688179818A810E947C1614
:102110008C010E94D6150E944714B801CE01DF91B0
:10212000CF911F910F910C94FC0D0E9476170E9485
:1021300087170E9449170E94A0170E94EF1C0E9457
:10214000FE1B90E080E00E94AE0B90E080E00C94DB
:10215000C40B0E9465170C9495100E947016282FCE
:10216000892F82958F70903C80F48A30B0F484304F
:1021700020F4823090F480E008958630E1F781E029
:10218000203E88F0213FB9F70EC08C3011F08F301F
:1021900091F793FB882780F9089581E0203F39F07B
:1021A00018F4203E40F70895243F29F7FCCF089506
:1021B000CF93DF9300D000D00F92CDB7DEB70F9052
:1021C0000F900F900F900F90DF91CF910895CF93C4
:1021D000DF9300D000D000D0CDB7DEB726960FB683
:1021E000F894DEBF0FBECDBFDF91CF9108951F934E
:1021F000CF93DF93E091770116E0809178018E1301
:1022000004C0DF91CF911F910895CE2FD0E01E9F83
:10221000F0011124E758FE4F4081518162817381A2
:10222000848195810E94E710FE013196E770E5CF29
:102230004091A9015091AA016091AB017091AC014C
:102240008091AD019091AE010C94E7101F93CF9354
:10225000DF938091AE01807FC1F48091AB01882330
:10226000A1F080917701C09178016091A9017091EE
:10227000AA014091AC015091AD01D62FD723DA01CC
:10228000A095B09516E0C81304C0DF91CF911F91BF
:10229000089590E04115510511F0DF3F31F40196AA
:1022A0008770F1CF2A0F3B1F17C0189FF001199FAD
:1022B000F00D1124E758FE4F21812713F0CF208124
:1022C0002613EDCF22812111EACF238134812417F7
:1022D000350740F3241B350B283C310500F72091CE
:1022E000AE012F7020612093AE0126E0289FF001FF
:1022F000299FF00D1124E258FE4F80818F7080617C
:10230000808389EA91E00E946B10DF91CF911F9149
:102310000C94F7109F92AF92BF92CF92DF92EF9200
:10232000FF920F931F93CF93DF93CDB7DEB72B9719
:102330000FB6F894DEBF0FBECDBF8C0185E0F8016B
:10234000DE01179601900D928A95E1F7D8014C9124
:1023500011965C9111971296EC9012978091AC01B6
:102360009091AD01009709F46BC12091A9013091C2
:10237000AA01632F62236F3F09F462C11396CD90C7
:10238000DC909090AB01992009F4F8C0C816D906EA
:1023900008F43FC0F601E81BF90BCF01FF24F394CA
:1023A000883C910508F0F12C89EAA82E81E0B82E2E
:1023B0008091AE01982F907FFF2009F4B7C0911152
:1023C00080C0FE2C35132AC0241328C0E11026C07B
:1023D0008F7080618093AE010E941811C5010E9428
:1023E0006B108091AE01D80115968C938F2D2B9692
:1023F0000FB6F894DEBF0FBECDBFDF91CF911F9116
:102400000F91FF90EF90DF90CF90BF90AF909F9093
:102410000895809590958C0D9D1DC0CFCD2829F0F5
:10242000842F85238F3F09F019C180E0B82FB17048
:10243000DB2EE09177012091780136E080FD1CC011
:10244000EE20A1F28091AE0181608093AE01F12C6B
:10245000CDCF8E2F90E03E9FF0011124E758FE4F24
:102460006181651306C06081641303C062816E11CF
:10247000E7CFFC013196E770E213EBCF4F8358872B
:102480008F8198850E947016292F22952F70903287
:1024900060F0225F2F70223078F49F7051F0F801C5
:1024A0009581907F31F4D12C0AC09F7011F0882360
:1024B000D1F3805E8830B8F3C8010E946B10FD2C08
:1024C00095CF351306C0241304C0D801EE2009F4BB
:1024D0007BC04F8358878F8198850E94AD108823D9
:1024E00009F4B8C0EE2009F4B5C08091AE01803285
:1024F00070F02091A9013091AA013A8329831B82AF
:10250000DD82CC828E83CE0101960E946B1086E024
:10251000F801A9EAB1E001900D928A95E1F70E94D5
:1025200026110E941811FF24F39460CF911113C05B
:102530007C2DDB86CA866E2D8B850E94D81089EA99
:1025400091E00E946B1086E0F50111928A95E9F7FF
:102550000E9418114BCF3513BCCF2413BACFE11012
:10256000B8CFD80115968C93C8010E946B1086E0F5
:10257000F50111928A95E9F7F92C38CFC816D906DA
:1025800088F1B601681B790BCB01F12C883C9105D1
:1025900008F047C0FE2CEE2009F45CC0351330C0B3
:1025A00024132EC08091AE0180FD21C0982F907F12
:1025B000F1F0D80115968C931597903F39F0982F2C
:1025C000907F905F8F70892B15968C93C8010E9425
:1025D0006B1086E0F801A9EAB1E001900D928A95AE
:1025E000E1F7B6CF809590958C0D9D1DCECF86E0FE
:1025F000F801A9EAB1E001900D928A95E1F7F6CED3
:102600004F8358878F8198850E94AD1081117FCFAD
:102610008091AE0181608093AE01C8010E946B1071
:10262000E5CE7C2DDB86CA866E2D8B850E94D81068
:1026300086E0E9EAF1E0DF011D928A95E9F788CFAB
:10264000EE2041F04F8358878F8198850E94AD100E
:1026500081115DCFC8010E946B1065CF81E08E258E
:10266000E5CE1F93CF93DF93CDB7DEB72C970FB690
:10267000F894DEBF0FBECDBF4F83588769877A8736
:102680008B879C87CE0107960E948A11882369F068
:102690008A859B85892B39F04F815885842F852326
:1026A0008F3F09F071C016E05FC086E0FE013796EB
:1026B000DE01119601900D928A95E1F78A859B853E
:1026C000892B89F388859F8189238F3F61F320912E
:1026D000780130E0C9010196877099274091770110
:1026E0004817190671F40E94A910109278011092EF
:1026F000770186E0E9EAF1E0DF011D928A95E9F7CA
:10270000D2CF96E0929FD001939FB00D1124A7588D
:10271000BE4FFE01319601900D929A95E1F780939C
:1027200078010E94F710BFCF819FC0011124875804
:102730009E4F0E948A118823E9F0E09177011E9F45
:10274000F0011124E758FE4F40815181628173816D
:10275000848195810E94E7108091770190E0019635
:102760008770992780937701809177019091780104
:102770008913DACF2C960FB6F894DEBF0FBECDBF0B
:10278000DF91CF911F91089569857A858B859C850E
:102790000E94E71088CFEF92FF920F931F93CF9381
:1027A000DF938C01892B89F0F12CEE24E394E8016E
:1027B0002196F8018491843709F457C0A0F482303F
:1027C00009F43EC048F48130D1F0DF91CF911F91E0
:1027D0000F91FF90EF9008959CEF980F9037A8F716
:1027E0000E94C30C0AC0853709F44CC09CE7980FBF
:1027F000903758F78F770E949F0D8E0116C00E5F9D
:102800001F4FFE01849190E2980F983060F487701A
:10281000FE2D01C0FF0F8A95EAF78F2F0E947917CE
:102820000E94A01702C00E94C30C8F2D815008F493
:10283000BECFEFE9FFE03197F1F700C00000F6CF1F
:102840000E5F1F4FFE01849190E2980F983050F474
:102850008770FE2D01C0FF0F8A95EAF78F2F0E9427
:102860007F17DECF0E949F0DE0CF0E5F1F4FFE014E
:10287000C491C150D0F28FE99FE00197F1F700C0F9
:102880000000F7CF0E5F1F4FFE01F490CECF0895EA
:102890006093E5017093E6018093E7019093E8016E
:1028A0000C949510CF93DF9300D000D0CDB7DEB756
:1028B00069837A838B839C838091E5019091E60103
:1028C000A091E701B091E80129813A814B815C81B7
:1028D000822B932BA42BB52B8093E5019093E601DB
:1028E000A093E701B093E8010F900F900F900F9025
:1028F000DF91CF910C949510CF93DF9300D000D04F
:10290000CDB7DEB769837A838B839C838091E501A1
:102910009091E601A091E701B091E80129813A8107
:102920004B815C8182239323A423B5238093E5010B
:102930009093E601A093E701B093E8010F900F9008
:102940000F900F90DF91CF910C949510CF93DF9360
:1029500000D000D0CDB7DEB769837A838B839C83A8
:102960008091E5019091E601A091E701B091E80125
:1029700029813A814B815C8182279327A427B5273F
:102980008093E5019093E601A093E701B093E801FD
:102990000F900F900F900F90DF91CF910C949510A6
:1029A0001092E1011092E2011092E3011092E40111
:1029B0000C94951041E050E060E070E004C0440FDA
:1029C000551F661F771F8A95D2F74093E1015093F8
:1029D000E2016093E3017093E4010C949510282FB9
:1029E00081E090E0A0E0B0E004C0880F991FAA1F2A
:1029F000BB1F2A95D2F74091E1015091E20160910D
:102A0000E3017091E401842B952BA62BB72B8093C7
:102A1000E1019093E201A093E301B093E4010C94EF
:102A2000951041E050E060E070E004C0440F551F95
:102A3000661F771F8A95D2F74095509560957095DF
:102A40008091E1019091E201A091E301B091E40154
:102A500084239523A623B7238093E1019093E20179
:102A6000A093E301B093E4010C949510282F81E02A
:102A700090E0A0E0B0E004C0880F991FAA1FBB1F20
:102A80002A95D2F74091E1015091E2016091E30172
:102A90007091E40184279527A627B7278093E10149
:102AA0009093E201A093E301B093E4010C9495109C
:102AB000CF93DF9300D000D0CDB7DEB769837A83A0
:102AC0008B839C838091E1019091E201A091E301CD
:102AD000B091E40129813A814B815C81822B932B57
:102AE000A42BB52B8093E1019093E201A093E30125
:102AF000B093E4010F900F900F900F90DF91CF9162
:102B00000C949510CF93DF9300D000D0CDB7DEB7F3
:102B100069837A838B839C838091E1019091E201A8
:102B2000A091E301B091E40129813A814B815C815C
:102B300082239323A423B5238093E1019093E201A0
:102B4000A093E301B093E4010F900F900F900F90CA
:102B5000DF91CF910C949510CF93DF9300D000D0EC
:102B6000CDB7DEB769837A838B839C838091E10143
:102B70009091E201A091E301B091E40129813A81B1
:102B80004B815C8182279327A427B5278093E1019D
:102B90009093E201A093E301B093E4010F900F90B2
:102BA0000F900F90DF91CF910C9495100895E82F1E
:102BB0002FE0929FE00D11248E2F877041E001C01D
:102BC000440F8A95EAF7E695E695E69585E0E89F55
:102BD000F0011124E155FE4F30E020E070E051910A
:102BE000DF011197CB01022E02C0969587950A94BA
:102BF000E2F7817081958527842385278C932F5F49
:102C00003F4F2530310559F70895E82F2FE0929F67
:102C1000E00D11249E2F9770E695E695E69585E0E8
:102C2000E89FF0011124E155FE4F50E040E080E0C4
:102C3000219130E0092E02C0369527950A94E2F7DB
:102C400021703327042E01C0220F0A94EAF7822B49
:102C50004F5F5F4F4530510559F70895BF92CF92AE
:102C6000DF92EF92FF920F931F93CF93DF938C012C
:102C7000C090E101D090E201E090E301F090E40126
:102C80008091E5019091E601A091E701B091E80102
:102C9000C82AD92AEA2AFB2ACFE1D0E0BC2ED701E4
:102CA000C6010C2E04C0B695A795979587950A94F2
:102CB000D2F780FD0EC0219788F7B12C8B2DDF91C4
:102CC000CF911F910F91FF90EF90DF90CF90BF9029
:102CD0000895B8018C2F0E94D607019761F3EECFBB
:102CE000CF93DF93D82FC92F0E942E166D2F7C2FE4
:102CF000DF91CF910C94D6071F93CF93DF93162FBC
:102D0000D72F90917601992339F0862F972FDF9155
:102D1000CF911F910C947016882391F0862F972FD6
:102D20000E942E16C82F682F812F9D2F0E94D71525
:102D3000612F7D2F8C2FDF91CF911F910C94D6079F
:102D4000862F972F0E940516C82FF2CF8091E90198
:102D500085958595859508958091E90187700895F9
:102D600098E0899F90011124622B6093E9010C94F3
:102D7000EF149091E901809589238093E901282F30
:102D8000277061F4282F082E000C330B92171306BE
:102D900029F08595859585950C9411150895909148
:102DA000E901977081E009F480E0089590911201A3
:102DB0009923E1F090913F0297FF18C0E82FE69524
:102DC000E695E695EF3139F120910001309101014E
:102DD000E20FF32FF11D877021E030E001C0220FD8
:102DE0008A95EAF78181822B8183089520910001E1
:102DF00030910101F90132969FEF40E05191851722
:102E000051F09F3F19F4511101C0942F4F5F4E3183
:102E1000A9F79F3F09F40895290F311D97FD3A95B1
:102E2000F9018283089590911201992301F1909103
:102E30003F0297FF1CC0E82FE695E695E695EF3137
:102E400039F12091000130910101E20FF32FF11DC2
:102E5000877021E030E0A90102C0440F551F8A9518
:102E6000E2F7CA0180959181892381830895209199
:102E7000000130910101F9013296205E3F4F91919E
:102E8000891303C0DF0111971C92E217F307B9F70A
:102E9000089581E090E0E0910001F0910101E80FD8
:102EA000F91F1082019680329105A9F7089590913B
:102EB0000D02982B90930D020895982F9095809174
:102EC0000D02892380930D02089510920D0208953A
:102ED00090910C02982B90930C020895982F909546
:102EE00080910C02892380930C02089510920C02A9
:102EF000089590910B02982B90930B020895982FB0
:102F0000909580910B02892380930B020895109273
:102F10000B0208958093EA0108951092EA01089542
:102F20002091000130910101F9013196205E3F4F5F
:102F300080E0919191118F5FE217F307D1F7089527
:102F4000E0910001F091010180910D028083E091F8
:102F50000001F0910101808190910C02892B808306
:102F6000E0910001F0910101808190910B02892B89
:102F700080839091EA01992361F0E0910001F09142
:102F800001018081892B80830E949017811110920A
:102F9000EA0180910001909101010C94980B6DEE73
:102FA0007EEF90E080E00E94EF2560E082E090E01C
:102FB0000E94DD2560E083E090E00E94DD2560E076
:102FC00084E090E00E94DD2560E085E090E00E94D2
:102FD000DD2560E086E090E00C94DD2590E080E067
:102FE0000E94D7259C0181E02D3E3E4F09F080E0F4
:102FF000089582E090E00C94CF25682F82E090E065
:103000000C94DD2583E090E00C94CF25682F83E0BD
:1030100090E00C94DD2584E090E00C94CF25682F9F
:1030200084E090E00C94DD2586E090E00C94CF25C0
:10303000682F86E090E00C94DD2580914602843074
:1030400051F110920F0288E190E020E40FB6F8945D
:10305000A895809360000FBE2093600080E00E94DE
:10306000890780E00E94B70783B7817F846083BFB0
:1030700083B7816083BF7894889583B78E7F83BF41
:103080000FB6F894A89580916000886180936000E5
:10309000109260000FBE089508950895CF930E9486
:1030A0004C180E94B00A0E944D18C0E08C2F0E945C
:1030B0007D0B892B31F4CF5FC530C1F780E0CF9114
:1030C000089581E0FCCF0E94A9100E94FB1C0E9481
:1030D0008C0B0C94B7071F921FB61F9211248F936D
:1030E0009F93AF93BF9380910F02811113C0809182
:1030F0003B0290913C02A0913D02B0913E0241966C
:10310000A11DB11D80933B0290933C02A0933D0210
:10311000B0933E02BF91AF919F918F911F901FBEC0
:103120001F90189582E084BD93E095BD9AEF97BDFE
:1031300080936E0008952FB7F89480913B02909190
:103140003C02A0913D02B0913E022FBF0895CF9264
:10315000DF92EF92FF929C014FB7F89480913B026F
:1031600090913C02A0913D02B0913E024FBF6C0194
:103170007D01EE24FF24A90170E060E0C416D506AD
:10318000E606F70638F0821B930BFF90EF90DF9076
:10319000CF9008950197F7CF1F921FB61F92112469
:1031A0008F939F93AF93BF9380913B0290913C028A
:1031B000A0913D02B0913E020196A11DB11D8093E8
:1031C0003B0290933C02A0933D02B0933E02BF911C
:1031D000AF919F918F911F901FBE1F9018950E94D5
:1031E0007821F8942FEF87EA91E6215080409040B3
:1031F000E1F700C0000087E090EBDC0180934F0214
:1032000090935002A0935102B093520288E19CE047
:103210000FB6F894A895809360000FBE909360005D
:10322000FFCFAF92BF92CF92DF92EF92FF920F93B8
:103230001F93CF93C0E0AA24A394B12CE82EF12CC5
:103240008C2F0E947D0B6C0110E000E0C501002E68
:1032500002C0880F991F0A94E2F78C219D21892BC7
:1032600099F0602F7C2F80E00E94BA07E816F906DB
:1032700059F481E0CF911F910F91FF90EF90DF9073
:10328000CF90BF90AF9008950F5F1F4F0F30110583
:10329000E9F6CF5FC530A1F680E0ECCFCF93C82F21
:1032A0008CE20E941119882321F08C2FCF910C946D
:1032B000111980E0CF910895CF93DF9300D000D013
:1032C000CDB7DEB70E94EE17811102C00E94CF1762
:1032D00095E6998308C00E94B00A8FE39CE90197A4
:1032E000F1F700C00000A981A150A983A111F3CF7B
:1032F00089E20E944E19811110C18AE20E944E1982
:1033000081110E94CF1785E00E944E1981110E9401
:10331000EF180E94F91780930E0287E00E944E1961
:10332000882371F08BE10E944E19882309F4D1C0E3
:1033300090910E02892F8D7F91FF826080930E0203
:1033400080910E020E94FD170E940B1890E090934E
:10335000400280933F0280EE0E944E19882341F084
:1033600090913F02892F8E7F90FF816080933F0272
:1033700089E30E944E19882341F090913F02892FE2
:103380008D7F91FF826080933F0282EE0E944E19F2
:10339000882341F090913F02892F8B7F92FF8460B8
:1033A00080933F0286EE0E944E19882341F090914F
:1033B0003F02892F877F93FF886080933F0283EECF
:1033C0000E944E19882341F090913F02892F8F7EF1
:1033D00094FF806180933F0285E30E944E19882309
:1033E00041F090913F02892F8F7D95FF80628093FD
:1033F0003F0281E30E944E19882341F090913F02E1
:10340000892F8F7B96FF806480933F0281E10E9429
:103410004E19882341F090913F02892F97FB87F93D
:10342000805880933F0280913F020E940F1887E2EC
:103430000E944E1989838EE10E944E19882319F04B
:10344000B981B260B9838FE10E944E19882319F0C7
:1034500029812460298380E20E944E19882319F073
:1034600039813860398381E20E944E19882319F02E
:1034700049814061498382E20E944E19882319F0F4
:1034800059815062598383E20E944E19882319F0B2
:1034900089818064898384E20E944E198823B1F176
:1034A00099819068998389810E9406183981232F18
:1034B00030E050E040E029833A834B835C83CA01CB
:1034C000B9010F900F900F900F90DF91CF910C9456
:1034D00048148EE00E944E19882339F090910E0214
:1034E000892F8B7F92FF846029CF80E10E944E1943
:1034F00090910E02882329F0892F877F93FF88609F
:103500001DCF892F8E7F90FF816018CFA981A111D7
:10351000CACF0E940218282FCBCF0F900F900F9088
:103520000F90DF91CF9108958091120280FF12C019
:103530006091050185E0689FB0011124759567953C
:103540007595679560387105A8F561157105A1F14C
:10355000862F089581FF09C06091050185E0689F6D
:10356000B001112475956795EDCF6091050182FD3D
:103570000AC0809113028823D1F0909104016091D8
:103580000501891728F085E0689FB0011124DACF82
:10359000869FB001112485E0869F9001879F300DA2
:1035A0001124692F70E0C9010E94A125CBCF65E0ED
:1035B00070E0CECF8FE7089581E0089580911202E8
:1035C00080FF0CC06091030170E07595679575955B
:1035D00067956115710549F1862F089581FF06C031
:1035E0006091030170E075956795F3CF60910301D9
:1035F00082FD0BC0909113029923A1F0609102010A
:1036000080910301961738F0682F70E060387105DB
:1036100000F38FE70895899FC001112470E00E9494
:10362000A125F4CF61E070E0D7CF81E00895803F1D
:1036300031F40E94941A8195809316020895813F77
:1036400019F40E94941AF8CF823F31F40E94941A20
:103650008195809315020895833F19F40E94941A6E
:10366000F8CF893F29F40E94DE1A8093170208954B
:103670008A3F21F40E94DE1A8195F7CF8B3F31F407
:103680000E94DE1A81958093180208958C3F19F4E8
:103690000E94DE1AF8CF843F31F4809114028160D9
:1036A000809314020895853F21F480911402826072
:1036B000F7CF863F21F4809114028460F1CF873FD9
:1036C00021F4809114028860EBCF883F21F480912F
:1036D00014028061E5CF8D3F31F480911202816048
:1036E0008093120208958E3F21F48091120282602D
:1036F000F7CF8F3FB9F7809112028460F1CF90919C
:103700001502803F41F48091160287FD1092160247
:10371000992371F00895813F29F4809116021816BB
:10372000ACF3F6CF823F81F497FFF2CF10921502EF
:103730008091160290911702892B90911802892B83
:1037400049F7109213020895833F19F4191674F380
:10375000DFCF893F39F4809117021816CCF610920A
:103760001702D6CF8A3F29F48091170287FFD0CF66
:10377000F6CF8B3F39F48091180287FFC9CF1092A2
:103780001802C6CF8C3F29F4809118021816BCF39A
:10379000BFCF843F31F4809114028E7F8093140256
:1037A000B7CF853F21F4809114028D7FF7CF863FFC
:1037B00021F4809114028B7FF1CF873F21F4809117
:1037C0001402877FEBCF883F21F4809114028F7E13
:1037D000E5CF8D3F31F4809112028E7F80931202EB
:1037E00097CF8E3F21F4809112028D7FF7CF8F3FCC
:1037F00009F08ECF809112028B7FF0CF84E192E0AE
:103800000E94A30B0E949B189093110280931002B8
:1038100008951F93CF93DF9300D000D000D0CDB791
:10382000DEB780911002909111020E94A718AC019E
:10383000809113022091060130E0811106C0209191
:1038400007019AE0299F900111244217530788F03D
:1038500020911502A0911602A98310911702B09130
:103860001802BE8321110FC09A2F912B9B2B09F0B8
:10387000B2C026960FB6F894DEBF0FBECDBFDF9163
:10388000CF911F9108958F3F19F08F5F809313029E
:10389000121624F40E94941A809315028091150246
:1038A00087FF05C00E94941A819580931502298193
:1038B000121624F40E94941A809316028091160224
:1038C00087FF05C00E94941A81958093160280910B
:1038D0001502882309F455C0309116023D83332325
:1038E00009F44FC0282F880F330B440B550B298345
:1038F0003A834B835C83CA01B9010E94A82423E365
:1039000033E343E35FE369837A838B839C83698139
:103910007A818B819C810E940C2569837A838B83B9
:103920009C8369817A818B819C810E947024609341
:1039300015028D81082E000C990BAA0BBB0B8983F5
:103940009A83AB83BC83BC01CD010E94A82423E3EE
:1039500033E343E35FE369837A838B839C836981E9
:103960007A818B819C810E940C2569837A838B8369
:103970009C8369817A818B819C810E9470246093F1
:103980001602111624F40E94DE1A80931702809109
:10399000170287FF05C00E94DE1A819580931702E7
:1039A0009E81191624F40E94DE1A809318028091D9
:1039B000180287FF05C00E94DE1A819580931802C5
:1039C00026960FB6F894DEBF0FBECDBFDF91CF9124
:1039D0001F910C94FE1B8F3F09F057CF68CF85E0F5
:1039E000E4E1F2E0DF011D928A95E9F710921302FB
:1039F0001092120208950E94EE17811102C00E94D7
:103A0000CF170E941418982F80934102817090FF65
:103A100002C0892F86950C94890780914102982FC6
:103A20009695863030F49F5F990F8170892B809333
:103A30004102809141028160809341020E941818E6
:103A40008091410286950C94890780914102982FBC
:103A50009E7F79F08250809341028E7F91E009F43D
:103A600090E08091410290FB80F9809341020E9496
:103A700018188091410286950C9489079091410213
:103A8000892F8E7F90FF8160809341020E941818D9
:103A900090914102892F817090FF02C0892F8695F5
:103AA0000C94890790914102892F86958F5F8F77BB
:103AB00091708430B8F4880F892B809341028091F3
:103AC00041028E7F91E009F490E08091410290FBE9
:103AD00080F9809341020E941818809141028695D6
:103AE0000C94890790934102EACF90914102292FCB
:103AF00026952827220F9170922B909341029E7F4A
:103B000021E009F420E08091410220FB80F98093BC
:103B100041020E9418188091410286950C948907F1
:103B2000809139020895CF93DF9300D00F92CDB7E3
:103B3000DEB720914602243019F523E029838A83D9
:103B40009B832093E9008FEF9091E800815095FDD1
:103B500006C095ED9A95F1F700008111F5CF80919F
:103B6000E80085FF0DC050E040E063E070E0CE016A
:103B700001960E94F01F8091E8008E778093E80004
:103B80000F900F900F90DF91CF910895CF93DF9317
:103B900000D00F92CDB7DEB79C01809146028430F1
:103BA00031F582E08983205831093B832A8383E001
:103BB0008093E9008FEF9091E800815095FD06C059
:103BC00095ED9A95F1F700008111F5CF8091E8000D
:103BD00085FF0DC050E040E063E070E0CE0101964B
:103BE0000E94F01F8091E8008E778093E8000F908C
:103BF0000F900F90DF91CF910895209146022430CD
:103C0000F1F422E02093E9002FEF3091E8002150F9
:103C100035FD06C035ED3A95F1F700002111F5CFDD
:103C20002091E80025FF0BC050E040E065E070E027
:103C30000E94F01F8091E8008E778093E80008953D
:103C4000CF93DF93D82FC92F809146028430F1F4AF
:103C5000909112019923E9F090913F0297FF19C0CA
:103C60008093E9008FEF9091E800815095FD06C0A8
:103C700095E19A95F1F700008111F5CF8091E80068
:103C800050E040E060E270E085FD1AC0DF91CF9126
:103C9000089581E08093E9008FEF9091E8008150D2
:103CA00095FD06C095ED9A95F1F700008111F5CFCD
:103CB0008091E80085FFEACF50E040E068E070E0E6
:103CC0008D2F9C2F0E94F01F8091E8008E778093AB
:103CD000E80080E2ED2FFC2FA9E1B2E001900D9207
:103CE0008A95E1F7D3CF80914502811109C00E94E6
:103CF00078210E94D5218091E20084608093E200C7
:103D00000895109245020895089508950C9463183B
:103D100042E061EC81E00E94F42042E061EC82E04C
:103D20000E94F42042E061EC83E00E94F42042E231
:103D300061EC84E00C94F42080914802893089F190
:103D400048F4823009F494C0833009F44FC08130C4
:103D500041F008958A3009F47BC08B3009F461C0CA
:103D6000089580914702813A09F03FC08091E800B0
:103D7000877F8093E80080914B0290914C02892BC1
:103D800061F460E289E192E070E00E943F2080915E
:103D9000E8008B778093E800089560E090E080E091
:103DA000F3CF80914702813201F580914B029091CF
:103DB0004C02009711F00397C1F48091E800877FCF
:103DC0008093E8008091E80082FF0BC08091F100B1
:103DD000809339028091E8008B778093E8000C94FF
:103DE0002821809146028111EDCF089580914702EC
:103DF000813AD9F780914B0290914C02892BA9F717
:103E00008091E800877F8093E8008091E80080FF40
:103E1000FCCF809112018093F1008091E8008E77B1
:103E2000DCCF80914702813201F780914B02909163
:103E30004C02892BD1F68091E800877F8093E800BF
:103E40000E94282180914902809312010C94A910AC
:103E500080914702813249F68091E800877F809304
:103E6000E8000E94282180914A0280933A02089536
:103E700080914702813A09F0B8CF8091E800877FAE
:103E80008093E8008091E80080FFFCCF80913A02A7
:103E9000C2CF84B7877F84BF0FB6F894A89580916E
:103EA0006000886180936000109260000FBE80E81F
:103EB00080936100109261000E94DB0B0E947821C8
:103EC0000E94D5218091E20084608093E200789482
:103ED0000E9455240E94DD0B88E091E00E94870B30
:103EE00080914602853019F00E94E50BF9CF0E94BF
:103EF0001D1880914402882399F30E944E1888234C
:103F000079F30E94DA1FECCF9C01DA01892F9927FF
:103F100083309105C1F068F48130910509F445C002
:103F2000029761F48DE690E02CE33AE02D933C9308
:103F3000089581329105E1F0829739F190E080E0B7
:103F400030E020E0F3CFC9019927213059F08230C9
:103F5000910559F0E8E3FAE0892B81F7849190E02C
:103F60009F01E4CFE0E2FAE0F9CFECE0FAE0F6CF2F
:103F7000643020F7E62FF0E0EE0FFF1FED5CFE4F00
:103F80002081318189E090E0D1CF6430B8F670E0D3
:103F9000FB01EE0FFF1FE55DFE4F20813181695D62
:103FA0007E4FFB01808190E0C1CF82E190E029EA61
:103FB0003AE0BCCF80E189BD82E189BD09B400FE51
:103FC000FDCF8091D8008F7D8093D8008091E00054
:103FD00082608093E0008091E00081FDFCCF089535
:103FE000AF92BF92CF92DF92FF920F931F93CF9326
:103FF000DF936C01EB018A010E944721F82E8111A9
:1040000023C00115110539F0F80180819181C81B89
:10401000D90BC80ED91EB12CA12C2097A9F08091E4
:10402000E80085FD22C08091E8008E778093E8004B
:1040300001151105A1F0F80180819181A80EB91E2A
:10404000B182A08285E0F82E8F2DDF91CF911F9154
:104050000F91FF90DF90CF90BF90AF9008950E9496
:1040600047218823D1F2F82EEFCFF60181916F011D
:104070008093F1002197FFEFAF1ABF0ACECFFC016A
:10408000CB0120914D0230914E022617370790F058
:10409000009729F42091E8002E772093E80040E073
:1040A000009751F4411108C08091E80082FF31C0AF
:1040B00080E00895C901F3CF209146022223A9F19F
:1040C0002530A9F12091E80023FD2DC02091E800C2
:1040D00022FDEACF2091E80020FFE2CF3091F300EB
:1040E0002091F200009719F02830310558F041E096
:1040F0002830310509F040E02091E8002E77209328
:10410000E800CECF41914093F10001972F5F3F4FE0
:10411000E9CF80914602882341F0853041F08091BB
:10412000E80083FFC1CF81E0089582E0089583E035
:104130000895FC01CB0120914D0230914E022617CB
:10414000370790F0009729F42091E8002E7720930C
:10415000E80040E0009751F4411108C08091E80068
:1041600082FF32C080E00895C901F3CF209146025A
:104170002223B1F12530B1F12091E80023FD2EC0BA
:104180002091E80022FDEACF2091E80020FFE2CF55
:104190003091F3002091F200009719F0283031059A
:1041A00058F041E02830310509F040E02091E80066
:1041B0002E772093E800CECF44914093F1003196C2
:1041C00001972F5F3F4FE8CF80914602882341F04F
:1041D000853041F08091E80083FFC0CF81E00895F1
:1041E00082E0089583E00895982F973028F08F702B
:1041F0008093E90081E008959093E900242F762FC1
:1042000050E0981731F07091EC002091ED00509142
:10421000F00021FD02C09F5FE8CF3091EB003E7FB0
:104220003093EB003091ED003D7F3093ED00309105
:10423000EB0031603093EB007093EC002093ED00C5
:104240005093F0002091EE0027FDE5CF80E0089527
:104250008091470287FF13C08091E80082FF06C06B
:104260008091E8008B778093E80004C0809146023B
:104270008111F2CF0895809146028823D9F380916D
:10428000E80080FFF8CF8091E8008E77ECCF209196
:10429000E4003091E50095E6A9012091EC00822F21
:1042A000817020FF06C08091E80080FF06C080E09A
:1042B00008952091E80022FD1AC0809146028823CB
:1042C00089F0853089F08091EB0085FD0FC0209149
:1042D000E4003091E50042175307F9F29150E1F6FE
:1042E00084E0089582E0089583E0089581E00895D0
:1042F0000E94E6210E94EE21E0EEF0E080818160E4
:104300008083E8EDF0E080818F77808319BCA7ED92
:10431000B0E08C918E7F8C9380818F7E8083109211
:10432000450208950F931F93CF93DF930E94E621D8
:104330000E94EE21C8EDD0E088818F778883888144
:104340008068888388818F7D888319BC109246029B
:1043500010924202109244021092430200EE10E0CA
:10436000F80180818B7F808388818160888342E02F
:1043700060E080E00E94F420E1EEF0E080818E7F3A
:104380008083E2EEF0E080818160808380818860BC
:104390008083F80180818E7F80838881806188831B
:1043A000DF91CF911F910F910895E8EDF0E08081AA
:1043B0008F7E8083E7EDF0E080818160808384E000
:1043C00082BF81E0809345020C949221E8EDF0E0F9
:1043D00080818E7F80831092E20008951092DA002F
:1043E0001092E10008951F920F920FB60F921124C0
:1043F0002F933F934F935F936F937F938F939F93ED
:10440000AF93BF93EF93FF938091E10082FF0BC0C6
:104410008091E20082FF07C08091E1008B7F809352
:10442000E1000E9454248091DA0080FF19C080913D
:10443000D80080FF15C08091DA008E7F8093DA006B
:104440008091D90080FF94C080E189BD82E189BD5F
:1044500009B400FEFDCF81E0809346020E94731EE6
:104460008091E10080FF19C08091E20080FF15C0BB
:104470008091E2008E7F8093E2008091E200806173
:104480008093E2008091D80080628093D80019BCAC
:1044900085E0809346020E94851E8091E10084FFA2
:1044A00029C08091E20084FF25C080E189BD82E1BE
:1044B00089BD09B400FEFDCF8091D8008F7D809327
:1044C000D8008091E1008F7E8093E1008091E2002E
:1044D0008F7E8093E2008091E20081608093E20011
:1044E00080914202882309F449C084E08093460207
:1044F0000E94861E8091E10083FF29C08091E20026
:1045000083FF25C08091E100877F8093E10082E0F6
:1045100080934602109242028091E1008E7F809348
:10452000E1008091E2008E7F8093E2008091E200C2
:1045300080618093E20042E060E080E00E94F4202D
:104540008091F00088608093F0000E94841EFF91AB
:10455000EF91BF91AF919F918F917F916F915F91FB
:104560004F913F912F910F900FBE0F901F90189574
:1045700019BC109246020E94811E72CF8091E30006
:1045800087FD02C081E0B2CF83E0B0CF1F920F92CF
:104590000FB60F9211242F933F934F935F936F9316
:1045A0007F938F939F93AF93BF93CF93DF93EF93BB
:1045B000FF93D091E900DF708091EC00C82FC170AB
:1045C00080FDC0E81092E9008091F000877F809321
:1045D000F00078940E940A231092E9008091F00084
:1045E00088608093F000CD2BCF70C093E900FF91DD
:1045F000EF91DF91CF91BF91AF919F918F917F917B
:104600006F915F914F913F912F910F900FBE0F903F
:104610001F9018951F93CF93DF93CDB7DEB7AA975E
:104620000FB6F894DEBF0FBECDBF87E492E0FC0169
:1046300001962091F100208322E08F349207B9F790
:104640000E949C1E8091E80083FF16C18091470262
:10465000909148029A3008F00FC1E92FF0E0E75D31
:10466000F94D0C94B525803881F0823809F004C1E9
:1046700080914B028F708093E9008091EB0085FB65
:10468000882780F91092E90006C08091430290913A
:104690004402911182609091E800977F9093E80026
:1046A0008093F1001092F1008091E8008E77E0C0D5
:1046B000882309F4CEC0823009F0DEC0809149021F
:1046C0008111D1C080914B028F7009F4D5C08093C5
:1046D000E9002091EB0020FFC6C0933031F48091B7
:1046E000EB0080628093EB00BEC09091EB00906184
:1046F0009093EB0021E030E001C0220F8A95EAF7A9
:104700002093EA001092EA008091EB008860EACFE3
:104710008111B2C0109149021F778091E300807827
:10472000812B8093E3008091E800877F8093E800ED
:104730000E9428218091E80080FFFCCF8091E30057
:1047400080688093E30082E0111183E08093460249
:1047500093C08058823008F08FC0809149029091B8
:104760004A028C3D23E09207A1F583E08A838AE226
:1047700089834FB7F894DE01139620E03EE051E2C2
:10478000E32FF0E050935700E49120FF03C0E2953F
:10479000EF703F5FEF708E2F90E0EA30C0F0C79669
:1047A0008D939D932F5F243159F74FBF8091E8007F
:1047B000877F8093E8006AE270E0CE0101960E9454
:1047C0003F208091E8008B778093E80055C0C09629
:1047D000E7CFAE014F5F5F4F60914B020E94841F95
:1047E000BC01892B09F448C08091E800877F809341
:1047F000E80089819A810E949920E3CF8038E1F511
:104800008091E800877F8093E80080914202809346
:10481000F1004ACF811130C090914902923060F589
:104820008091E800877F8093E800909342020E9485
:10483000282180914202882311F084E005C08091F4
:10484000E30087FDFACF81E0809346020E94881E34
:1048500013C080914902813079F481E0933009F0EE
:1048600080E0809344021092E9008091E800877F05
:104870008093E8000E9428218091E80083FF0AC00D
:104880008091E800877F8093E8008091EB00806250
:104890008093EB00AA960FB6F894DEBF0FBECDBF93
:1048A000DF91CF911F9108950895CF938091460293
:1048B0008823A1F0C091E900CF709091EC00892F7E
:1048C000817090FD80E8C82B1092E9008091E8008B
:1048D00083FD0E940A23CF70C093E900CF91089511
:1048E0000E9477246894B1110C94062508950E94C3
:1048F000EB2488F09F5798F0B92F9927B751B0F063
:10490000E1F0660F771F881F991F1AF0BA95C9F753
:1049100014C0B13091F00E940525B1E008950C94C7
:104920000525672F782F8827B85F39F0B93FCCF37A
:10493000869577956795B395D9F73EF490958095D0
:10494000709561957F4F8F4F9F4F0895E89409C0F0
:1049500097FB3EF490958095709561957F4F8F4FB2
:104960009F4F9923A9F0F92F96E9BB279395F695C8
:10497000879577956795B795F111F8CFFAF4BB0F46
:1049800011F460FF1BC06F5F7F4F8F4F9F4F16C0AA
:10499000882311F096E911C0772321F09EE8872F34
:1049A000762F05C0662371F096E8862F70E060E0F0
:1049B0002AF09A95660F771F881FDAF7880F969569
:1049C000879597F9089557FD9058440F551F59F052
:1049D0005F3F71F04795880F97FB991F61F09F3FEC
:1049E00079F087950895121613061406551FF2CF15
:1049F0004695F1DF08C0161617061806991FF1CF65
:104A000086957105610508940895E894BB2766278B
:104A10007727CB0197F908950E941F250C949025C4
:104A20000E94822538F00E94892520F0952311F0FC
:104A30000C9479250C947F2511240C9406250E9452
:104A4000E32470F3959FC1F3950F50E0551F629FCB
:104A5000F001729FBB27F00DB11D639FAA27F00DD7
:104A6000B11DAA1F649F6627B00DA11D661F829FFE
:104A70002227B00DA11D621F739FB00DA11D621FE3
:104A8000839FA00D611D221F749F3327A00D611D00
:104A9000231F849F600D211D822F762F6A2F1124E2
:104AA0009F5750409AF0F1F088234AF0EE0FFF1F15
:104AB000BB1F661F771F881F91505040A9F79E3F6C
:104AC000510580F00C9479250C9406255F3FE4F3A2
:104AD000983ED4F3869577956795B795F795E795C2
:104AE0009F5FC1F7FE2B880F911D9695879597F9CB
:104AF000089597F99F6780E870E060E008959FEF60
:104B000080EC089500240A94161617061806090664
:104B1000089500240A941216130614060506089533
:104B2000092E0394000C11F4882352F0BB0F40F4BB
:104B3000BF2B11F460FF04C06F5F7F4F8F4F9F4FFB
:104B4000089597FB072E16F4009407D077FD09D03F
:104B50000E94BB2507FC05D03EF4909581959F4FA0
:104B60000895709561957F4F0895EE0FFF1F059092
:104B7000F491E02D0994AA1BBB1B51E107C0AA1FA9
:104B8000BB1FA617B70710F0A61BB70B881F991FEE
:104B90005A95A9F780959095BC01CD010895F99992
:104BA000FECF92BD81BDF89A992780B50895A8E1FE
:104BB000B0E042E050E00C94F725262FF999FECFA3
:104BC00092BD81BDF89A019700B4021639F01FBA60
:104BD00020BD0FB6F894FA9AF99A0FBE089501967F
:104BE000272F0E94DE250C94DD25DC01CB01FC0182
:104BF000F999FECF06C0F2BDE1BDF89A319600B436
:104C00000D9241505040B8F70895F894FFCFE40654
:104C1000F006F406F806FC060007040708070C0770
:104C20001007140718071C072007240728072C075C
:104C30003007340E340E8C0E8C0ED00EEC0E640E3B
:104C4000640EF70E640EBF0FBF0F2A103310640EF0
:104C50005310332358233C2458233C248823A9236E
:064C60003C24FE230A249F
:104C6600EB012808140A321E901D201EFD1DC61DCC
:104C7600931D01F0F1F4F5F6F7676636353497962D
:104C86009495C690919293404D3639770B2A0BF442
:0C4C96000ABB0A4E0A670A800A990A004D
:00000001FF
